:020000040800F2
:100000003808002451030008BB3D0008DD37000814
:10001000B93D0008071500080D4800080000000061
:100020000000000000000000000000000140000887
:100030000915000800000000BD3D0008034000084D
:100040006B0300086B0300086B0300086B030008D8
:100050006B0300086B0300086B0300086B030008C8
:100060006B0300086B0300086B0300086B030008B8
:100070006B0300086B0300086B0300086B030008A8
:100080006B0300086B0300086B0300086B03000898
:100090006B0300086B0300086B0300086B03000888
:1000A0006B0300086B0300086B0300086B03000878
:1000B0006B0300086B0300086B0300086B03000868
:1000C0006B0300086B0300086B0300086B03000858
:1000D0006B0300086B0300086B0300086B03000848
:1000E0006B0300086B030008000000006B030008AE
:1000F0006B0300086B0300086B0300086B03000828
:100100006B0300086B0300086B0300086B03000817
:100110006B0300086B0300086B0300086B03000807
:100120006B0300086B0300086B0300086B030008F7
:100130006B0300086B0300086B0300086B030008E7
:1001400000000000000000000000000000000000AF
:100150006B0300086B0300086B0300086B030008C7
:100160006B0300086B0300086B0300086B030008B7
:100170006B0300086B0300086B030008000000001D
:100180006B0300086B0300086B0300086B03000897
:100190006B0300086B0300086B0300086B03000887
:1001A0006B0300086B0300086B0300086B03000877
:1001B0006B0300086B0300086B0300086B03000867
:1001C0006B0300086B0300086B0300086B03000857
:1001D0006B0300086B0300086B0300086B03000847
:1001E0006B0300086B0300086B0300086B03000837
:1001F0006B0300086B0300086B0300086B03000827
:100200006B0300086B0300086B0300086B03000816
:100210006B0300086B0300086B0300086B03000806
:100220006B0300086B0300086B030008000000006C
:100230006B0300086B030008000000006B0300085C
:100240006B0300086B0300086B0300086B030008D6
:100250006B0300086B0300086B0300086B030008C6
:100260006B0300086B0300086B0300086B030008B6
:100270006B0300086B0300086B030008000000001C
:100280006B0300086B0300086B030008000000000C
:10029000000000006B03000800F002F800F049F8CD
:1002A0000AA090E8000C82448344AAF10107DA45D1
:1002B00001D100F03EF8AFF2090EBAE80F0013F0DA
:1002C000010F18BFFB1A43F0010318470C48000048
:1002D0002C480000103A24BF78C878C1FAD85207D9
:1002E00024BF30C830C144BF04680C6070470000B0
:1002F0000023002400250026103A28BF78C1FBD82F
:10030000520728BF30C148BF0B607047662904F010
:100310005883002070471FB504F04EFB00F0C2FB6D
:1003200004000020002104F031FBE0601FBD10B587
:1003300010BD00F0B7FC1146FFF7EDFF04F098FA8E
:1003400000F0D5FC03B4FFF7F2FF03BC00F00CFD96
:100350000948804709480047FEE7FEE7FEE7FEE759
:10036000FEE7FEE7FEE7FEE7FEE7FEE70448054995
:10037000054A064B70470000E54000089902000856
:1003800038020024380800243804002438040024EB
:1003900053EA020C00F069802DE9F04B4FF00006A3
:1003A000002B1FBFB3FA83F503FA05F424FA05F610
:1003B0005E4012BF1643B2FA82F502FA05F4C5F1A7
:1003C00020051EBF22FA05FC44EA0C04203556EA3B
:1003D000044C4FEA144418BF641C4FF000084FF05F
:1003E0000009904271EB030C39D3002919BFB1FA0F
:1003F00081F701FA07F6B0FA80F700FA07F6C7F1BD
:1004000020071EBF20FA07FC46EA0C062037B6FB81
:10041000F4FCA7EB0507103F07F01F0BCBF12006FC
:100420000CFA0BFB2CFA06F644BFB3460026202F2D
:10043000A4BF5E464FF0000B5BEA060C08BF4FF00E
:10044000010B19EB0B09ABFB027C48EB0608C01B48
:1004500006FB02CC0BFB03CC71EB0C01C1E70B4696
:10046000024641464846BDE8F08B13B54FF0000008
:100470004FF00001AFF30080BDE81C407047000062
:100480000FB41CB5074B06AA7B446946009005983B
:1004900000F0EFFA0020694600F0FEFA1CBC5DF89F
:1004A00014FB00000D0600002DE9F0474FF0000A94
:1004B00089460446C0F820A02046E1688847002805
:1004C00076D0252806D0D4E901219047206A401C27
:1004D0002062F1E7E168204600258847C4F81CA0A7
:1004E00006460027C4F818A02A2E09D0304604F08A
:1004F000B7F938B304EB8708303EC8F8186019E044
:1005000059F8041B204604EB87029161E168884793
:10051000012F064618D1E069002820DA25F02005D1
:100520001DE0D8F8180000EB800006EB40003038E2
:10053000C8F818002046E1688847064604F090F99C
:100540000028EED1012F0AD02E2E08D12046E168D6
:1005500088477F1C0646022F45F02005C4DBA069B2
:10056000002803DA404245F00105A061E80701D008
:1005700025F01005B6B1A6F14100192802D82036A1
:1005800045F400654A463146204625604D46FFF752
:10059000BDFE58B1012806D0ED1D25F0070000F181
:1005A000080989E704E005F1040985E730468AE790
:1005B000206ABDE8F08710B5431C02E010F8011B6B
:1005C00071B18107FAD14FF0013202C88C1A8C4305
:1005D00014EAC211F9D0C01A0A0603D0C01E10BD19
:1005E000C01A10BD0A0401D0801E10BD0902FCD043
:1005F000401E10BD4FF0000200B5134694469646CB
:10060000203922BFA0E80C50A0E80C50B1F1200125
:10061000BFF4F7AF090728BFA0E80C5048BF0CC0D3
:100620005DF804EB890028BF40F8042B08BF704731
:1006300048BF20F8022B11F0804F18BF00F8012BA3
:10064000704770477047704770472DE9FF4F0C4661
:100650001E464FF0FF378BB0D2E90001DDF8608015
:100660000A908A46C1F30A5505B93D46002108465D
:100670004FF00000BAF1000F00F4400005DA00EB83
:1006800080004FF4400101EA50004FEA9059B9F15F
:10069000010F00DDB9460A9850EA4A000ED044F630
:1006A0001050A5F2FF3545432F14B8F1000F1ED0AE
:1006B0007542291E1EDDC9F100021CE0B8F1010FD0
:1006C0004FF0000001D0302103E0F24305E0215457
:1006D000401CB042FBDB30460022002121540B9924
:1006E000C1F80880C1E900200FB0BDE8F08FBD1B44
:1006F0006D1CDEE74A4600DA694206A800F05CFAA3
:1007000006AB93E8070003AB83E8070050460A995D
:1007100000F031FB8DE80700A0F500501F38009075
:100720000398002D0ADD42F21F014A4608440023C7
:1007300003A90390684600F09AFD09E0A0F5005077
:100740004A461F38002303A90390684600F0A4FD21
:100750008DE807000004000C03D04FF0FF30410883
:1007600000E01046B8F1000F03D0002200921546B9
:100770001EE0751E05D400F099F9303262556D1EE9
:10078000F9D5B3460122084302D000227F1C04E0C1
:100790002078302801D100227F1E002A099784D0BA
:1007A0001DE0112D07DA00F081F9303262556D1C21
:1007B00050EA0102F5D1084302D00098C8B10EE01A
:1007C0000021681E05E0235C625C63542254401ED5
:1007D000491C8142F7DBAB46A81B401E0990002054
:1007E00004F80B000B98099AC0F80880C0E9002BA8
:1007F0007AE711264FF0000857E72DE9F04F8846B9
:100800000446D21D22F0070191B0D1E90001CDE9E3
:100810000A0103F0FCFF02460B98C00F01D02D2007
:1008200007E02068810701D52B2002E0202101EAA2
:10083000C000032A099001D0072A05DB0346414680
:10084000204600F079F90BE12078800601D5E069B7
:1008500000E00620B8F1650F814606D0B8F1660FBA
:1008600018D0B8F1670F70D131E00020B9F1110F45
:10087000009001DB112301E009F101030AAA01A99B
:100880000CA8FFF7E2FEDDE90C70002609F1010576
:10089000834647E001204B4600904FF000470AAAEC
:1008A00001A90CA8FFF7D1FEDDE90DB00C995D465A
:1008B000002610B909F101000D18B9EB050003D4A9
:1008C000C0F1FF3609F10105A5EB09002BE0B9F1F4
:1008D000010F01DA4FF001090020B9F1110F00906A
:1008E000484601DD112300E003460AAA01A90CA82D
:1008F000FFF7ABFEDDE90C704D46002683462078FD
:1009000000070AD4AB4500DA5D4601A8012D04DDDD
:10091000411911F8011C302907D04F4502DA17F1AF
:10092000040F04DA012082460FE06D1EEEE7002F6F
:1009300002DCED1B3E4403E0781CA84200DD7D1C78
:10094000B81B00F1010A4FF000472078000703D4DC
:10095000AA4501DB4FF0FF3A0021B7F1004F0DF13E
:1009600043088DF8431024D002202B23002F01DAF6
:100970007F422D230A21021EA0F1010000DC5FB19D
:1009800097FBF1FC97FBF1F201FB1C7C17460CF185
:10099000300C08F801CDEEE7A8F1010003702188C2
:1009A000090501D5452100E06521A0F1010800F805
:1009B000011C09980FA9A1EB0807FF1D00B1012038
:1009C000411901EBEA70A1693844081A401EA06180
:1009D0002078C00602D42046AFF30080099828B1E1
:1009E000D4E901219047206A401C20622078C0068B
:1009F00022D52046AFF300801EE0002E04DBB34575
:100A000002DD01A8805D00E03020D4E9012190479B
:100A1000206A401C2062761CAAF101005FEA000AED
:100A20000AD100F03FF8C0680168405CD4E90121B8
:100A30009047206A401C2062281EA5F10105DCDCDD
:100A400007E0D4E9012118F8010B9047206A401C07
:100A50002062381EA7F10107F3DC2046AFF30080C7
:100A6000032011B041E6000001694A1C02610878C8
:100A7000704700B58FB0CDE90131002105910549DE
:100A80007944CDE9031011466846FFF70DFD0FB01C
:100A900000BD0000E5FFFFFF0A6802F8010B0A60D5
:100AA0007047000000487047F801002430B5B0F1ED
:100AB0000A024FEA900E71F100034EEA817EB0EB1C
:100AC0000E0061EB91014FEA101E4EEA017E10EB21
:100AD0000E0041EB11114FEA102E4EEA016E10EBA1
:100AE0000E0041EB11214FEA104E4EEA014E10EB81
:100AF0000E0041EB1141401841F100014FEAD000D6
:100B000040EA41704FEAD10110EB80054FEA8104C1
:100B100044EA907444EB01046D1944EB0404521B45
:100B2000A3414FF0000348BF0A3200D530BD401C3E
:100B300041F1000130BD00002DE9F0411F4604469F
:100B400003260168072A01F4006004DB08B116A53A
:100B500005E016A503E008B115A500E015A521F0F4
:100B600010002060A069C01EA0610FB1401EA061EE
:100B70002046AFF300804FB1D4E9012138469047B9
:100B8000206A401C2062C01C206206E0206AFAE74E
:100B9000D4E9012115F8010B9047761EF8D22046C2
:100BA000AFF30080BDE8F0814E414E006E616E00F3
:100BB000494E4600696E66002DE9F04781461646AB
:100BC0008AB0354878440DC88DE80D003248784425
:100BD000801C03AC0DC884E80D0041F69B3008442E
:100BE000372190FBF1F290FBF1F5A5F1800501FBB7
:100BF00012041B3C02D56442012000E00020DFF813
:100C000098A080460027FA44AAF1BE0A0EE0E00749
:100C10000AD03246684607EB470101230AEB8101FF
:100C200000F03AFB8DE8070064107F1C002CEED129
:100C3000194F7F44AE3F19E0E80715D007EB0410C9
:100C40000DF1180A90E80E008AE80E00C068F04224
:100C500001D1981908903246012306A903A800F093
:100C60001BFB03AB83E807006D10641C002DE3D170
:100C70004FF0010332466946B8F1000F03A802D0D5
:100C800000F0F5FA01E000F007FBC9E90001C9F83E
:100C900008200AB0BDE8F087B43E00000048704765
:100CA000D80100247546FFF7F9FFAE4605006946F6
:100CB000534620F00700854618B020B5FFF756FBD5
:100CC000BDE820404FF000064FF000074FF000084D
:100CD0004FF0000B21F00701AC46ACE8C009ACE8CE
:100CE000C009ACE8C009ACE8C0098D46704710B532
:100CF0000446AFF300802046BDE81040FFF722BB5A
:100D00004FF0013C50F8042B51F8043B9A4215D1A6
:100D1000A2EB0C03934313EACC130BD150F8042B32
:100D200051F8043B9A4209D1A2EB0C03934313EA16
:100D3000CC13E7D04FF00000704700BFD01A01BAC3
:100D4000B1FA81F101F0180122FA01F0CB40C1F1B2
:100D50002001DBB2C0B2C01A2CFA01F3D11A9143C0
:100D600011EAC311E6D1704701491820ABBEFEE776
:100D70002600020070475FEA400C08BF91F0000FA8
:100D80004FEA8C234FEAC12243EA51514FEA1C50EB
:100D900018BF00F5F0404FEA300018BF41F00041A5
:100DA0005FEA6C5C00F02980BCF1FF3F08BF40F0B7
:100DB00080407047130C06BF12044FF0100C4FF028
:100DC000000C130E04BF12020CF1080C130F04BF29
:100DD00012010CF1040C930F04BF92000CF1020CF1
:100DE000D30F04BF52000CF1010C11464FF000026A
:100DF000A0F11F00A0EB0C00704711F0004F08BFDE
:100E0000704731F000413FF4D5AF0B0C06BF090429
:100E10004FF0100C4FF0000C0B0E04BF09020CF148
:100E2000080C0B0F04BF09010CF1040C8B0F04BF5D
:100E300089000CF1020CCB0F04BF49000CF1010C2E
:100E4000CCF12003A0EB0C0022FA03F302FA0CF21F
:100E500041EA030100F10100704720F07F4C80EA75
:100E6000030023F07F47ACEB070303F57C5300F04E
:100E7000004003F1FF032DE980494FEA154B09B407
:100E80004FEA144325EA0B4E24EA03480FF20426E6
:100E900006EB132749083E785FEA320203FB066738
:100EA000C7F5000707FB06F64FEA54374FEAD64668
:100EB00006F1020607FB066CCCF1005C4FEA1C470A
:100EC0002CEA074C07FB06F40CFB06F504EB154671
:100ED0004FEA961634BF00204FF000404FEAD1375A
:100EE00006FB07FC4FEA1C4C0CFB0BF7D21B03FB69
:100EF0000CF761EB07010CFB0EF7B0EB074072EB50
:100F000017420CFB08F734BFA2EB0742B2EB0742D3
:100F100061EB17414FEA0C444FEA910706FB07FCCF
:100F20004FEA1C4C0CFB0BF7B0EBC74072EB57328F
:100F300003FB0CF734BFA2EBC742B2EBC74261EB35
:100F400057310CFB0EF7B0EBC70072EB57720CFB7E
:100F500008F734BFA2EBC702B2EBC70261EB5771CF
:100F6000039F4FEA816141EA921104EBCC044FEAFE
:100F7000D1374FEA826206FB07FC42EA90124FEA41
:100F800080604FEA1C4C0CFB0BF7D21B03FB0CF7E9
:100F900061EB07010CFB0EF7B0EB074072EB174259
:100FA0000CFB08F734BFA2EB0742B2EB074261EB40
:100FB00017414FEA8C554FEA910704EB9C2406FB3E
:100FC00007FC4FEA1C4C0CFB0BF7B0EBC74072EB75
:100FD000573203FB0CF734BFA2EBC742B2EBC74258
:100FE00061EB57310CFB0EF7B0EBC70072EB577299
:100FF0000CFB08F734BFA2EBC702B2EBC70261EBF0
:10100000577115EB4C254FEA816141EA92114FEA85
:1010100082624FEAD13742EA901206FB07FC44F1A4
:1010200000044FEA80604FEA1C4C0CFB0BF7D21B0C
:1010300003FB0CF761EB07010CFB0EF7B0EB07406D
:1010400072EB17420CFB08F734BFA2EB0742B2EB7E
:10105000074261EB174115EB1C154FEA813141EA5C
:1010600092414FEA823242EA90424FEA80304FEAA0
:101070000C7644F1000448EA03434EEA0B484FF073
:10108000000EB2EB080C71EB030724BF6246394631
:101090004EEB0E0E4FF0000B0018524149414BEB46
:1010A0000B0BB2EB080C71EB03077BF1000B24BFB9
:1010B000624639464EEB0E0E4FF0000B00185241BF
:1010C00049414BEB0B0BB2EB080C71EB03077BF1C7
:1010D000000B24BF624639464EEB0E0E51EA020762
:1010E00018BF46F0010616EB0E7655F1000254F1DA
:1010F000000103D5BDE88901BDE80088BDE889018C
:10110000BDE80048B619524141EB0101A3F10103CA
:10111000704780807F7E7D7C7B7A79787776767564
:101120007473727171706F6E6E6D6C6C6B6A6A69DC
:101130006868676666656464636362616160605F76
:101140005F5E5E5D5D5C5C5B5B5A5A5959585857EF
:101150005756565555555454535352525251515057
:1011600050504F4F4F4E4E4D4D4D4C4C4C4B4B4BAA
:101170004A4A4A49494948484847474747464646F0
:10118000454545444444444343434342424242412B
:101190004141002B9C4630D477002BD01CB54FEA40
:1011A000370703B44FF010004FF01001BAF1000FF1
:1011B00006D0BCF1000FDCBF40F0080040F0080191
:1011C0004FF000000FBCBDE810400BF1010BBBF16C
:1011D000010F08BF5FEA170722BF12F1010211F1E8
:1011E00001014FF0004143F1000300F0004043EAE9
:1011F00000007047F9D35708D0E746EA064613F1D6
:10120000400F4FEA16461FDD13F1200FDFBF1643D4
:101210000A46002120335B42BED0C3F1200746EAD4
:10122000064602FA07F74FEA164646EA0706C3F1F2
:10123000200722FA03F201FA07F721FA03F14FF02F
:10124000000342EA0702A7E746EA020646EA064624
:101250004FEA164646EA0106BCBF46EA0646360C89
:101260004FF000034FF000024FF0000194E72DE92A
:10127000804C9A46934670B491E8380007C831EA2A
:10128000400C48BF34EA430C03D5FFF7E6FDFFF7F7
:1012900080FFF0BCBDE8008C2DE9804C9A46934657
:1012A00070B491E8380007C810F0804F08BF13F001
:1012B000804F03D100F005F8FFF76BFFF0BCBDE8ED
:1012C000008C20F07F4780EA030023F07F4C07EB7F
:1012D0000C03A3F57C5300F00040A3F1FE0392F051
:1012E000000F00F0B38095F0000F00F077802DE93B
:1012F00001494FEA11404FEA144621EA004800FB39
:1013000006FC24EA064708FB06F607FB08F800FB84
:1013100007F718EB06484CEB164C4FEA124B18EB4C
:1013200007484FEA15464CEB174022EA0B4E0BFBE1
:1013300006FC25EA06470EFB06F607FB0EFE0BFB36
:1013400007F71EEB064E4CEB164C4FF000061EEB5B
:10135000074E4CEB174B18EB0B0840F1000018EB55
:101360000E0B58EB000840F100008F1A4FF00001FF
:101370003CBFC943661B14BFB5EB040C00213CBF46
:10138000C943F61B4FEA17444EEA8E0E27EA04457E
:101390004FEA1C4704FB07622CEA074C05FB07F7E2
:1013A0000CFB05F604FB0CFC16EB074642EB174260
:1013B00016EB0C4642EB1C421BEB060658EB0202F6
:1013C000414146EA9E0601D5BDE80189B619524160
:1013D00041EB0101A3F10103BDE801894FEA144586
:1013E0004FEA114724EA054621EA074C05FB07F4BA
:1013F00006FB07F70CFB06F105FB0CFC11EB0741A4
:1014000044EB17444FEA124711EB0C4144EB1C44E8
:1014100022EA074C05FB07F206FB07F70CFB06F672
:1014200005FB0CFC16EB074642EB174216EB0C468D
:1014300042EB1C456A1854F1000148BF7047B619C9
:10144000524141EB0101A3F10103704795F0000FF8
:1014500037D04FEA11424FEA144721EA024624EA04
:10146000074C02FB07F106FB07F70CFB06F402FB37
:101470000CFC14EB074441EB17414FEA154714EB02
:101480000C4441EB1C4125EA074C02FB07F506FB27
:1014900007F70CFB06F602FB0CFC16EB074645EBC8
:1014A000174516EB0C4645EB1C42121951F1000191
:1014B00048BF7047B619524141EB0101A3F1010346
:1014C00070474FEA14454FEA114724EA054621EADE
:1014D000074C05FB07F106FB07F70CFB06F24FF084
:1014E000000605FB0CFC12EB074241EB174112EB27
:1014F0000C4251EB1C4148BF7047921841EB01016F
:10150000A3F101037047FEE7704772B6FEE70000E3
:1015100070B5044600F02AF90546601C02D0044864
:101520000078044400F022F9401BA042FAD370BDB9
:10153000140000242DE9F84F03247D4D00234FF0C3
:1015400001094FF0B04B4FF00F0AE9E009FA03F739
:101550003A4076D00E7906F00306012E01D0022E15
:1015600018D1D0F808C04FEA430ECE6804FA0EF83E
:101570002CEA080C06FA0EF646EA0C068660D0F84D
:1015800004C00E792CEA070CC6F300169E4046EA0A
:101590000C0646600E79F643B6070BD0C6684FEAD4
:1015A00043088F6804FA08FC26EA0C0607FA08F7D5
:1015B0003743C7600E7906F00306022E12D1DE080B
:1015C0000F694FEA437C00EB8606B646366A4FEA5F
:1015D000DC6C0AFA0CF807FA0CF726EA080637431F
:1015E000CEF820700F7906684FEA430807F003072A
:1015F00004FA08FC07FA08F726EA0C0637430760E6
:101600004E6816F4403F1CD04A4E376847F0020738
:10161000376036689F0706F00206009623F003063F
:1016200006F1B046B6463F0FD6F80864DFF80881E9
:101630000AFA07FC404526EA0C0603D14FF0000CDD
:1016400041E06CE0DFF8F4C0604502D14FF0010CDE
:1016500039E0DFF8ECC0604502D14FF0020C32E017
:10166000DFF8E0C0604502D14FF0030C2BE0DFF85B
:10167000D8C0604502D14FF0040C24E0DFF8CCC0A4
:10168000604502D14FF0050C1DE0DFF8C4C0604595
:1016900002D14FF0060C16E0DFF8B8C0604502D169
:1016A0004FF0070C0FE0DFF8B0C0604502D14FF0FB
:1016B000080C08E0DFF8A4C0604502D14FF0090C27
:1016C00001E04FF00A0C0CFA07FC4CEA060CCEF8CD
:1016D00008C44F68DBF80060FF0226EA020600D566
:1016E00016435F46CBF80060D1F804C0DBF8046015
:1016F0005FEA8C2C26EA020600D516437E606E68EF
:101700004F6826EA0206BF0300D516436E602E68B6
:101710004F6826EA0206FF0300D516432E605B1CC5
:101720000A6832FA03F67FF411AFBDE8F88F0000C3
:1017300080000058F4440258000002580004025887
:1017400000080258000C02580010025800140258F9
:1017500000180258001C02580020025800240258A9
:1017600001480068000C70470010005C0148806868
:10177000704700001400002430B590F84120202A62
:1017800024D190F84020012A20D0012380F8403055
:10179000242280F84120202300240268156825F0C7
:1017A000010515600268156825F48055156002680A
:1017B00015680D43156001680A6842F001020A606D
:1017C00080F8413080F84040002030BD022030BD1C
:1017D00030B590F84120202A22D190F84020012AEB
:1017E0001ED0012380F84030242280F8412020249C
:1017F00000250268136823F0010313600268136870
:1018000023F4706343EA0121116001680A6842F021
:1018100001020A6080F8414080F84050002030BD4D
:10182000022030BD70B5040004D094F841000025BA
:1018300010B106E0012070BD204684F8405000F051
:101840002FFA242084F841002068016821F001016A
:101850000160D4E9001020F07060086120688168A0
:1018600021F400418160E06821680128A06830D03F
:1018700040F404408860E0680228206841682BD06A
:1018800021F40061416020682021154A4368134318
:1018900043602068C26822F40042C26054F8106BB2
:1018A0000DCC104340EA0320F06054F81C3CD4E90E
:1018B00000021043186054F81C0D026842F0010247
:1018C0000260656484F84110256384F8425000206A
:1018D00070BD40F40040CDE741F40061D2E7000064
:1018E000008000022DE9FC47002504461E46924672
:1018F0000195894690F84100202868D120688069C8
:10190000C043000463D594F8400001285FD0012152
:1019100084F8401024204FF0200884F841006564CA
:10192000E06801280BD02B4A2B4900BF49EA02008E
:10193000084021684860FFF719FF07460AE0274A78
:101940002749F3E7701C05D0FFF710FFC01BB0421A
:1019500019D8C6B1206881698269C1F34010C2F309
:1019600000110843EED02068806933464FF0000232
:101970004FF02001C0430097C006204616D502F064
:1019800043F8B0B908E084F84180606C84F84050B6
:1019900040F0200060640CE02168C1F81C8084F8ED
:1019A0004180002084F84050BDE8FC8702F02CF80C
:1019B00008B10120F8E722681021D1612168C1F83F
:1019C0001C800198401C01905045A9D3DBE7022000
:1019D000EAE7000000280002FF2B000200200002BE
:1019E000FF2300022DE9FF4F83B0044690F8410029
:1019F0009A469346DDE91087DDF84890202874D197
:101A00005FEA080014D09FB194F8400001286CD020
:101A1000012084F84000FFF7A9FE012206461923A1
:101A20000090D103204601F0EFFF002871D103E0C0
:101A30004FF4007060646CE00025C4F8248022211B
:101A400084F84110402084F842006564678553465D
:101A500065635A4604992046CDE9009601F058FF87
:101A600010B184F8405054E0618DFF2734484FF0A6
:101A70008078FF294FF0007A04D927853A464346FB
:101A8000009005E0618D53462185009094F8282050
:101A90002046049901F0A0FF00224B460421204675
:101AA000009601F0B1FFA0BB2068616A406A08702F
:101AB000606A401C6062208D401E81B22185608D6D
:101AC000401E6085608DD8B1D1B900224B4680217F
:101AD0002046009601F098FFD8B9608DFF2805D9FF
:101AE00027853A464346009506E026E0608D53463A
:101AF0002085009594F828202046049901F06CFF79
:101B0000608D0028C8D132464946204601F0BAFF10
:101B100018B1012007B0BDE8F08F21682020094AE4
:101B2000C86121684B6813404B6084F8410084F819
:101B30004250002084F84050ECE70220EAE7000021
:101B40000024008000E800FE2DE9FF4F83B004462A
:101B500090F841009A469346DDE91087DDF84890F9
:101B6000202871D15FEA080014D09FB194F840009A
:101B7000012869D0012084F84000FFF7F7FD012219
:101B8000064619230090D103204601F03DFF0028AE
:101B90006ED103E04FF40070606469E00025C4F882
:101BA0002480212184F84110402084F8420065649B
:101BB0006785534665635A4604992046CDE90096E9
:101BC00001F0D8FE10B184F8405051E0608DFF273D
:101BD0004FF08078FF284FF0007A04D927853A46E5
:101BE0004346009505E0608D53462085009594F8A6
:101BF00028202046049901F0EFFE3246494620464F
:101C000001F06CFFA0BB606A216800788862606A9E
:101C1000401C6062608D401E6085208D401E80B239
:101C20002085618DD9B1D0B900224B468021204654
:101C3000009601F0E9FED8B9608DFF2805D9278507
:101C40003A464346009506E026E0608D53462085DF
:101C5000009594F828202046049901F0BDFE608D7F
:101C60000028CAD132464946204601F00BFF18B180
:101C7000012007B0BDE8F08F20682021074AC1612C
:101C8000206843681340436084F8411084F8425050
:101C9000002084F84050ECE70220EAE700E800FE6C
:101CA00010B5B6B00446142130A8FEF7A3FCC0213D
:101CB0006846FEF79FFC1849206888422AD1002018
:101CC000219008210446CDE90010684600F08EFA04
:101CD00008B1FFF71AFC1148016841F002010160E8
:101CE000006830AB122100F002003590C0200422C1
:101CF00083E813000A4830A9CDE93342FFF71AFC04
:101D000006480830016841F400110160006800F4E1
:101D10000010359036B010BD00540040E044025829
:101D200000040258024881680278114481607047BB
:101D300014000024032010B500F0C6F801F0A0F84C
:101D40000F4A104914681368C4F3032203F00F0309
:101D50008A5CC95C02F01F0201F01F01D0400A4AF0
:101D600020FA01F11160094908600F2000F010F815
:101D700008B1012010BD00F079F8002010BD00006E
:101D800018440258EE4900082400002420000024D2
:101D900070B50D4D04462878A0B14FF47A71B1FBAF
:101DA000F0F00A490968B1FBF0F001F0C6FB48B950
:101DB000102C07D200222146501E00F065F80020AA
:101DC0006C6070BD012070BD140000242000002450
:101DD000154BF0B5083B427813491A600B680A1F8F
:101DE00023F001030B6043681360057BC67A827A97
:101DF000437B2D07847B45EA0665C77B90F809C0C5
:101E0000067A90F800E045EAC24040EA834040EAA2
:101E1000444040EA074040EA0C2040EA460040EADD
:101E20000E000860F0BD0000A0ED00E0BFF35F8F82
:101E3000044800210368034A23F4803303607032AE
:101E40001160704724ED00E0074A40F001000649A8
:101E500070321060086840F480300860BFF34F8F24
:101E6000BFF36F8F7047000024ED00E0054808B510
:101E7000016841F002010160006800F0020000907A
:101E800008BD0000F44402580E4BF0B41B680D4628
:101E9000C3F30223C3F10706042E00D90426191D3B
:101EA000072901D2002300E0DB1E012404FA06F119
:101EB0009C40491E2940641E994014402143F0BCB7
:101EC00002F0BDBC0CED00E0064900F0070210B5C1
:101ED0004FF6FF040868044B204040EA02201843F4
:101EE000086010BD0CED00E00000FA05134970B564
:101EF0000A68D243520705D5096801F007018142FB
:101F000013D118E00A6822F0070202430A60FFF7C3
:101F10002DFC0A4D4FF47A760446083D07E000BFD9
:101F2000FFF724FC001BB04201D9012070BD2868D6
:101F3000C0438004F4D4002070BD00000C48025857
:101F400010B500F057FF05490968054AC1F30211B1
:101F5000515C01F01F01C84010BD00002044025830
:101F6000EE490008494930B5484C0B1D0A68143445
:101F700009681D68246802F00303C5F30012C1F369
:101F80000531C4F3CC04002914FB02F200EE102A40
:101F9000F8EE400A75D03F4A9FED3D1AB7EE000AB1
:101FA0006BB1DFED3D1A012B01D0022B64D002EEA4
:101FB000101A1168F8EE422A81EEA22A21E0334C71
:101FC000283C23689B0612D5344B246801EE901AF6
:101FD0001168C4F3C104F8EE612AE34001EE903ABF
:101FE000C1F30801F8EE611A81EEA22A0BE001EEBE
:101FF000901ADFED2B2A00BFF8EE611A116882EE0D
:10200000A12AC1F3080101EE901A1168F8EE611AD5
:1020100040EE811A71EE800A62EE200AC1F3462179
:1020200001EE101AB8EE411A31EE001AC0EE811A14
:10203000BCEEE11A80ED001A1168C1F3064101EE11
:10204000101AB8EE411A31EE001AC0EE811ABCEE39
:10205000E11A80ED011A1168C1F3066101EE101A50
:10206000B8EE411A31EE000A80EE801ABCEEC10AC9
:1020700080ED020A30BD04E001EE901ADFED092A7E
:10208000BAE70021016041608160F3E7284402580B
:1020900000000039384402580024744A0090D003EC
:1020A0000024744C20BCBE4B494930B5484C0B1D34
:1020B0000A681C3409681D68246802F00303C5F32C
:1020C0000022C1F30551C4F3CC04002914FB02F231
:1020D00000EE102AF8EE400A75D03F4A9FED3D1AF7
:1020E000B7EE000A6BB1DFED3D1A012B01D0022BD8
:1020F00064D002EE101A1168F8EE422A81EEA22A8C
:1021000021E0334C283C23689B0612D5344B2468CD
:1021100001EE901A1168C4F3C104F8EE612AE3409D
:1021200001EE903AC1F30801F8EE611A81EEA22A9D
:102130000BE001EE901ADFED2B2A00BFF8EE611ADA
:10214000116882EEA12AC1F3080101EE901A11680C
:10215000F8EE611A40EE811A71EE800A62EE200AF2
:10216000C1F3462101EE101AB8EE411A31EE001A01
:10217000C0EE811ABCEEE11A80ED001A1168C1F3BD
:10218000064101EE101AB8EE411A31EE001AC0EE07
:10219000811ABCEEE11A80ED011A1168C1F30661E3
:1021A00001EE101AB8EE411A31EE000A80EE801AE4
:1021B000BCEEC10A80ED020A30BD04E001EE901AC7
:1021C000DFED092ABAE70021016041608160F3E791
:1021D0002844025800000039404402580024744A40
:1021E0000090D0030024744C20BCBE4B2DE9FE4F60
:1021F0000546DFF8E48350F8081B0024F64FC94376
:10220000019005F12800264608F1240800900801F5
:102210001DD4A86E50B1B0F5801F0CD0B0F5001FD2
:102220000ED0B0F5401F1ED001240FE0386840F4F6
:102230000030386017E00198022101F0C1FD03E091
:102240000098022101F04CFE04000CD0264628889C
:10225000C043C00523D4A86D05281ED2DFE800F0D6
:102260000C11161B1B00AA6ED8F8001021F44011A7
:102270001143C8F80010EAE7386840F400303860CD
:1022800009E00198002101F09BFD03E00098002186
:1022900001F026FE044674B100E001242646288899
:1022A000C043800528D4E86D80281ED00CDC90B196
:1022B00040280ED114E0AA6DD8F8001021F00701D3
:1022C0001143C8F80010EAE7C02813D0B0F5807FAA
:1022D00010D001240FE0386840F40030386009E085
:1022E0000198002101F06CFD03E00098002101F04D
:1022F000F7FD04469CB126462888DFF8DC92C043EF
:1023000009F12C0940052CD4D5F8A800B0F5800FB0
:1023100020D00DDCA0B1B0F5001F0FD115E0EA6DA3
:10232000D8F8001021F4E0711143C8F80010E3E779
:10233000B0F5C00F13D0B0F5000F10D001240FE09E
:10234000386840F40030386009E00198002101F05D
:1023500037FD03E00098002101F0C2FD04467CB186
:1023600026462888C04300052DD4D5F8AC00B0F12E
:10237000007F21D00EDCA8B1B0F1807F10D116E033
:10238000D5F8A820D9F8001021F460011143C9F84C
:102390000010E6E7B0F1407F13D0B0F1806F10D0AD
:1023A00001240FE0386840F40030386009E00198FB
:1023B000002101F005FD03E00098002101F090FDEF
:1023C000044674B126462868C04380011FD4E86CD7
:1023D000D8B110280FD0202812D0302815D00124D1
:1023E00014E0D5F8AC20D9F8001021F0E0611143D9
:1023F000C9F80010E7E7386840F40030386004E0BE
:102400000198022101F0DCFC044674B126462888BC
:10241000C043C0042BD4286EB0F5005F20D00DDC83
:10242000A0B1B0F5805F0FD115E06B48EA6C2030A9
:10243000016821F0300111430160E8E7B0F5405F29
:1024400013D0B0F5804F10D001240FE0386840F46D
:102450000030386009E00198002101F0B1FC03E090
:102460000098002101F03CFD04468CB126462888E6
:10247000C043800429D4686EB0F5403F23D010DCFF
:1024800008B3B0F5803F14D0B0F5003F0FD115E090
:102490002A6ED8F8001021F4E0411143C8F800106A
:1024A000E5E7B0F5802F0ED0B0F5A02F0BD00124BA
:1024B0000AE00198012101F083FC03E0009801216A
:1024C00001F00EFD044694B126462888C04340041E
:1024D0002AD4D5F8B000B0F1405F23D010DC08B3A7
:1024E000B0F1805F14D0B0F1005F0FD115E06A6EDB
:1024F000D8F8001021F4E0211143C8F80010E4E7F7
:10250000B0F1804F0ED0B0F1A04F0BD001240AE003
:102510000198012101F054FC03E00098012101F031
:10252000DFFC044674B126462888C04300041FD44B
:10253000286FD8B1B0F1805F0ED0B0F1005F10D03D
:10254000012414E0D5F8B020D9F8001021F0E041C2
:102550001143C9F80010E7E7386840F400303860EC
:1025600004E00198012101F02BFC044674B12646D9
:102570002868C043C0011ED4A86CD0B101280ED079
:10258000022811D0032814D0012413E02A6FD8F8B0
:10259000001021F040511143C8F80010E8E73868F6
:1025A00040F40030386004E00198022101F008FC9A
:1025B0000446ACB126462868DFF81CB0C043ABF136
:1025C0001C0B400252D40548016841F4807101603F
:1025D000FFF7CCF8824611E02C440258004802581C
:1025E000FA48AA6C016821F0030111430160E2E797
:1025F000FFF7BCF8A0EB0A00642835D8F44800685F
:10260000C005F5D58CBBDFF8C4A3B5F8B4100AF14A
:10261000240ADAF8000001F4407100F440708842A6
:1026200011D0DAF80010DAF8002021F4407142F4F9
:102630008032CAF80020DAF8002022F48032CAF88A
:102640000020CAF80010D5F8B400B0F5807F1AD188
:10265000FFF78CF8029012E0FFF788F80299411A10
:1026600041F2883081420AD9032426462878DFF8CF
:102670005CA3C0430AF1080AC00721D03CE0DAF8A5
:1026800000008007E8D5D5F8B410C1F30120032875
:1026900058460DD0016821F47C510160B5F8B42092
:1026A000DAF80010C2F30B021143CAF80010DDE79C
:1026B000C84A036802EA111223F47C511143ECE783
:1026C000E86F182816D005DCA0B1082808D010281B
:1026D00004D10AE020280DD028280BD001240AE0DC
:1026E0000198012101F06CFB03E00098012101F049
:1026F000F7FB044664B126462878C04380071ED401
:10270000A86F062819D2DFE800F0160C111616166D
:10271000EA6FDAF8001021F038011143CAF800100E
:10272000EAE70198012101F04BFB03E00098012149
:1027300001F0D6FB04467CB100E00124264628784F
:10274000C04340071FD4D5F89400062819D2DFE80B
:1027500000F0160C11161616AA6FDAF8001021F008
:1027600007011143CAF80010E9E70198012101F0BF
:1027700027FB03E00098012101F0B2FB0446A4B15D
:1027800000E0012426462878C04380062BD4D5F8E3
:102790009000B0F1405F24D011DC10B3B0F1805F45
:1027A00015D0B0F1005F10D116E0D5F89420D9F81B
:1027B000001021F007011143C9F80010E3E7B0F160
:1027C000804F0ED0B0F1A04F0BD001240AE0019849
:1027D000002101F0F5FA03E00098022101F080FBEE
:1027E000044694B126462878C04340062BD4D5F839
:1027F0009C00B0F5406F24D011DC10B3B0F5806FB1
:1028000015D0B0F5006F10D116E0D5F89020DAF8A9
:10281000001021F0E0411143CAF80010E3E7B0F5E1
:10282000805F0ED0B0F5A05F0BD001240AE00198C4
:10283000002101F0C5FA03E00098022101F050FBED
:10284000044694B126462878C04300062BD4D5F818
:10285000A000B0F5C04F24D011DC10B3B0F5005F7C
:1028600015D0B0F5804F10D116E0D5F89C20D9F8DE
:10287000001021F4E0511143C9F80010E3E7B0F56E
:10288000004F0ED0B0F5204F0BD001240AE0019884
:10289000002101F095FA03E00098022101F020FBED
:1028A000044654B126462878C04300071ED4D5F804
:1028B0008400B0F5805F0AD00FE0D5F8A020D9F8E9
:1028C000001021F460411143C9F80010EBE70098B3
:1028D000022101F005FB00B10126D5F88420DAF8C9
:1028E000001021F440511143CAF800102878C04369
:1028F000C00613D4D5F89800B0F5807F05D10098B4
:10290000022101F0EDFA00B10126D5F89820D9F89E
:10291000001021F440711143C9F800102868C04329
:10292000000316D4D5F8A40038B1B0F5803F09D023
:10293000B0F5003F0BD001240AE00198002101F01E
:102940003FFA03E00098022101F0CAFA04468CB174
:1029500026462868C043400322D4D5F88800B0F545
:10296000801F11D0B0F5001F13D0B0F5401F15D057
:10297000012414E0D5F8A420D9F8001021F4403146
:102980001143C9F80010E4E7386840F400303860BB
:1029900004E00098012101F0A3FA04465CB1264648
:1029A0002868C043C00323D4286DA8B1B0F5803F88
:1029B00017D001241BE0D5F88820DAF8001021F4A4
:1029C00040111143CAF80010EAE700004C440258D5
:1029D00000480258CFFFFF00386840F400303860EC
:1029E00004E00198022101F0EBF90446E4B1264627
:1029F0002868C043800005D40098022101F070FAD5
:102A000000B101262868C04380031BD4D5F880009C
:102A1000B0B1B0F5807F0FD0B0F5007F10D0B0F529
:102A2000407F0DD001240CE05A482A6D016821F442
:102A3000803111430160DBE7386840F400303860D2
:102A4000ECB326462868C043C00207D46A6FD8F8A2
:102A5000001021F000411143C8F800102868C0435D
:102A6000C00008D4D5F8B820DBF8001021F480416C
:102A70001143CBF800102868C043800207D4EA6EE7
:102A8000D8F8001021F080711143C8F800102868B0
:102A9000C04340000CD4DBF8001021F40041CBF817
:102AA0000010DBF80010D5F8BC201143CBF8001063
:102AB0002868C04308D437486A6D016800E018E010
:102AC00021F04051114301602868C043000208D43E
:102AD000D5F88C20DAF8001021F440011143CAF82F
:102AE000001028790024C04300F0010020430AD0E0
:102AF0000FE0D5F88020DAF8001021F4407111437E
:102B0000CAF800109EE70198002101F059F900B1C0
:102B100006462879C04300F00200204305D1019801
:102B2000012101F04DF900B106462879C04300F0BB
:102B30000400204305D10198022101F041F900B1C0
:102B400006462879C04300F00800204305D10098CC
:102B5000002101F0C5F900B106462879C04300F014
:102B60001000204305D10098012101F0B9F900B10E
:102B700006462879C04300F02000044304D10098A1
:102B8000022101F0ADF900B916B10120BDE8FE8FB8
:102B90000020FBE74C4402582DE9F05F04000F468B
:102BA0007ED0DFF83882D8F8000000F00F00B8427D
:102BB0000CD2D8F8001021F00F013943C8F80010EA
:102BC000D8F8000000F00F00B84269D12078844D99
:102BD00040070AD52069296801F07001884204D9AC
:102BE000296821F070010143296020787C4E361D50
:102BF00000070AD56069316801F07001884204D984
:102C0000316821F07001014331602078C0060AD597
:102C1000A069316801F4E061884204D9316821F487
:102C2000E061014331602078DFF8B4B180060BF138
:102C3000080B0CD5E1695846DBF8002002F0700261
:102C4000914204D9026822F070020A43026020789F
:102C500080070AD5E068296801F00F01884204D98D
:102C6000296821F00F01014329602078C0073ED078
:102C70005B49A2682868183920F470601043286006
:102C80006068022818D0032819D00968012819D0D3
:102C9000490700294ADADFF848A1AAF1080A00E04A
:102CA00044E0DAF8002022F007020243CAF80020CC
:102CB000FEF75CFD814612E009688903E9E70968CF
:102CC0008901E6E7C905E4E7FEF750FDA0EB09013D
:102CD00041F28830814202D90320BDE8F09F61684B
:102CE000DAF8000000F03800B0EBC10FECD120782A
:102CF00080070AD5E068296801F00F01884204D2F4
:102D0000296821F00F0101432960D8F800104046DE
:102D100001F00F01B9420BD9016821F00F013943CD
:102D20000160006800F00F00B84201D00120D4E734
:102D3000207840070AD52069296801F0700188428F
:102D400004D2296821F0700101432960207800072E
:102D50000AD56069316801F07001884204D2316897
:102D600021F07001014331602078C0060AD5A069C6
:102D7000316801F4E061884204D2316821F4E061F5
:102D800001433160207880060CD5E1695846DBF8B4
:102D9000002002F07002914204D2026822F0700218
:102DA0000A43026000F06CF80E492A682B68C2F3EF
:102DB000032203F00F038A5CC95C02F01F0201F0DA
:102DC0001F01D040084A20FA01F11160074908604C
:102DD00007480068BDE8F05FFEF7DABF0020005248
:102DE00018440258EE490008240000242000002462
:102DF0001800002430B500F043F80B4A0B490C4B87
:102E000015681468C5F3032204F00F048A5C095D99
:102E100002F01F0201F01F01D040064A20FA01F122
:102E200019601060084630BD18440258EE49000889
:102E3000240000242000002400B5FFF7DBFF054933
:102E40000968054AC1F30211515C01F01F01C84035
:102E500000BD00001C440258EE49000800B5FFF711
:102E6000C9FF05490968054AC1F30221515C01F017
:102E70001F01C84000BD00001C440258EE49000874
:102E8000454970B545480968434B103B11F038027D
:102E900008D00111082A03D0102A0BD0182A0BD011
:102EA000084670BD19688906FBD51968C1F3C101D0
:102EB000C84070BD3A4870BD3749374D18310C1DB8
:102EC00024350A68096826682D6802F0030406F0B4
:102ED0000102C1F30511C5F3CC0515FB02F200EEAA
:102EE000102AB8EE400AE9B32F4ADFED2E0AB7EEFA
:102EF000001A6CB1DFED2D1A012C01D0022C43D049
:102F000002EE101A1068F8EE422A81EEA22A1EE0A4
:102F10001C68A40611D51B6801EE901A1168C3F352
:102F2000C103F8EE612AD84001EE900AC1F308000F
:102F3000F8EE611A81EEA22A0BE001EE901ADFEDA5
:102F40001C2A00BFF8EE611A106882EEA12AC0F3B5
:102F5000080001EE900AF8EE611A40EE201A31EEF8
:102F6000810A00E015E022EE000A1068C0F3462056
:102F7000401C00EE900AF8EE600A80EE201ABCEECB
:102F8000C10A10EE100A70BD01EE901ADFED092A99
:102F9000D8E7002070BD0000104402580090D00314
:102FA00040787D0100000039304402580024744A02
:102FB0000024744C20BCBE4B2DE9F05F04007DD092
:102FC000FF4F2078FE4D1837DFF8F493103DC0070F
:102FD00048D0D9F80000396800F03800102815D022
:102FE000182803D101F0030002280FD06068B0F563
:102FF000803F12D010B1B0F5A02F18D0286820F46F
:1030000080302860286820F4802009E02868800348
:1030100028D560680028D2D024E0286840F48030A9
:103020002860606888B1FEF7A1FB064609E02868C1
:1030300040F480202860F0E7FEF798FB801B6428AE
:103040006FD828688003F7D50CE0FEF78FFB0646A3
:1030500005E000BFFEF78AFB801B6428F0D82868D3
:103060008003F7D4207841F20308D54E0C3E800748
:1030700069D5D9F80000396810F038000ED018284A
:1030800001D188070AD0E06890B3296821F01901BE
:1030900001432960FEF76AFB824631E02868400759
:1030A00002D5E06800288AD0E168286820F019007D
:1030B00008432860FEF75AFB824607E0DFE000BFC6
:1030C000FEF754FBA0EB0A000228B9D82868400795
:1030D000F6D500BFFEF744FB40451BD820694028C9
:1030E00012D0316821F47C3141EA003030602AE0AE
:1030F00018E000BFFEF73AFBA0EB0A0002289FD8B9
:1031000028684007F6D5E5E7306820F47C3040F4C5
:103110000030EBE7207C316821F0FE4141EA00609D
:10312000E4E70DE1286820F001002860FEF71EFBAF
:10313000824605E0FEF71AFBA0EB0A0002288DD8B4
:1031400028684007F6D42078C0065DD5D9F800007D
:10315000DFF86CB2396800F03800ABF1040B0828D6
:1031600010D0182803D101F0030001280AD0E0692B
:103170000028286838D040F080002860FEF7F6FA72
:10318000824623E02868C00523D5E069802876D1EF
:103190001FE0206A202821D0316821F0F84141EA5F
:1031A0008060306030E000BF94F82010DBF8002031
:1031B00022F07C5242EA0161CBF8001024E000BF0B
:1031C000FEF7D4FAA0EB0A00022898D82868C005B8
:1031D000F6D5FEF7C5FA4045E6D8DAE7306820F0C4
:1031E000F84040F08040DCE720F080002860FEF7E7
:1031F000BDFA064605E000BFFEF7B8FA801B0228BC
:103200009DD82868C005F7D42078000729D56C48D8
:103210006169643000298046016811D041F00101E4
:103220000160FEF7A3FA064605E000BFFEF79EFA2E
:10323000801B0228C9D8D8F800008007F6D510E016
:1032400021F001010160FEF791FA064605E000BF9A
:10325000FEF78CFA801B022872D8D8F8000080078D
:10326000F6D42078800623D5A0690028286810D0DD
:1032700040F480502860FEF779FA064605E036E112
:10328000FEF774FA801B02285AD828688004F7D504
:103290000EE020F480502860FEF768FA064604E04D
:1032A000FEF764FA801B02284AD828688004F7D405
:1032B000207840074FD5DFF80C81D8F8001041F492
:1032C0008071C8F80010FEF751FA064605E000BF0D
:1032D000FEF74CFA801B642832D8D8F80000C005ED
:1032E000F6D5374EA068603601280AD008B1052807
:1032F00013D0306820F001003060306820F0040006
:1033000002E0306840F001003060A06841F2883A85
:1033100090B1FEF72BFA80460AE0306840F00400D6
:103320003060EEE7FEF722FAA0EB0801514507D81E
:1033300030688007F6D50EE0FEF718FA804607E001
:1033400084E000BFFEF712FAA0EB080151457DD8DA
:1033500030688007F6D4606AB0B3DFF86480D9F8CB
:10336000001008F120084FF6F87B08F10409C1F3BA
:10337000C2010329A8F1040A69D00228286820F0B4
:103380008070286003D0FEF7F1F9044684E0FEF770
:10339000EDF9064605E000BFFEF7E8F9801B0228BC
:1033A00077D828688001F7D4E26A40F2F3313868B0
:1033B00054F8283F884340EA02101843386004E07C
:1033C0001044025800480258B5E0217B4346228948
:1033D0004FF4FE0C208A4FF0FE474902267D521E14
:1033E000401EA1F50071C2F308088AB2761E0CEAED
:1033F000004042EA08020243504607EA06610A43D7
:103400001A60DAF8002022F00102CAF80020D9F888
:103410000020266A22EA0B0242EAC602C9F800200E
:10342000DAF80010A26921F00C011143CAF800106B
:103430000168E26921F0020111430160016841F471
:1034400080310160016841F4003101E021E027E0B2
:103450000160016841F480210160016841F00101CF
:103460000160286840F080702860FEF77FF904460C
:1034700005E000BFFEF77AF9001B022809D828688A
:103480008001F7D557E000BFFEF770F9001B022856
:1034900002D90320BDE8F09F28688001F4D44AE0F7
:1034A00039680128D8F8000021D0A26A01F003038E
:1034B00093421CD1E26AC1F305118A4217D1216BF4
:1034C000C0F30802491E8A4211D1616BC0F3462243
:1034D000491E91420BD1A16BC0F30642491E914295
:1034E00005D1E16BC0F30660491E814201D0012085
:1034F000D0E7A16C4E46D9F80000C0F3CC00814261
:1035000019D0DAF80000554620F00100CAF8000092
:10351000FEF72CF94FEA0007FEF728F9B842FBD076
:10352000A26C306820EA0B0040EAC20030602868D4
:1035300040F0010028600020ACE7401EB0F1807F21
:1035400010B501D3012010BD4FF0E02460610F21C0
:10355000601701F074F90020A0610721216110BDFE
:1035600030B590F88410012918D0012280F8842009
:103570002421C0F888100022202401680B680D68FF
:1035800023F0005325F001050D60426601680B60D1
:10359000C0F8884080F88420104630BD022030BD3D
:1035A00070B5044690F8840001281DD0012284F8EB
:1035B00084202420C4F8880020680568026822F06E
:1035C000010202602068826822F060620A43826021
:1035D000204600F0F5FD2268202100201560C4F887
:1035E000881084F8840070BD022070BD70B5044658
:1035F00090F8840001281DD0012284F88420242022
:10360000C4F8880020680568026822F001020260A0
:103610002068826822F060420A438260204600F0FF
:10362000CFFD2268202100201560C4F8881084F89E
:10363000840070BD022070BD10B5040003D0D4F822
:10364000880010B107E0012010BD002084F884003C
:10365000204600F027F82420C4F88800206801687C
:1036600021F001010160A06A10B1204600F0CAFDFE
:10367000204600F0ABFE0128E6D02068416821F426
:10368000904141602068816821F02A0181602068B2
:10369000016841F0010101602046BDE8104000F0E2
:1036A00015BE000010B5B6B00446142130A8FCF7D2
:1036B000A1FFC0216846FCF79DFF19492068884298
:1036C0002BD100201F9001210446CDE9001068464F
:1036D000FEF78CFD08B1FDF718FF1248016841F0B4
:1036E00010010160006800F0100035900D4810389E
:1036F000016841F001010160006830AB022100F077
:10370000010035904FF4C060072283E8130006489B
:1037100030A9CDE93342FDF70DFF36B010BD0000F2
:1037200000100140F0440258000002582DE9F8430F
:103730000446D0F88800984616460D46202802D048
:103740000220BDE8F883A5B19EB10021C4F8901015
:103750002120C4F888001834FEF708F8814654F890
:10376000100CA687E6872027183CB0F5805F02D0B2
:1037700003E00120E5E7206910B12E46002510E0A6
:1037800000260EE08021204600F0F6FFC0B9DEB131
:1037900016F8010B21688862B4F85600401EA4F8A0
:1037A0005600B4F856004B464FF00002CDF80080AA
:1037B0000028E7D14FF04001204600F0DDFF48B17E
:1037C000C4F888700320BCE735F8020B2168C0F309
:1037D0000800E0E7C4F888700020B2E7FEE701685F
:1037E0008A69D243920701D400228A620068816903
:1037F000C943C90703D0816941F001018161704764
:103800002DE9F047044600680026894617464FF028
:10381000200835468169C90641D51021C1612FE0D4
:10382000B9F1FF3F2CD0FDF7A1FFC11B494502D8DC
:10383000B9F1000F24D12068426894F842108369DE
:1038400002F48042DB431B0415D4B2F5804F12D042
:10385000202910D0416841F480414160FDF786FF86
:10386000074608E0FDF782FFC01B192803D901268F
:1038700045F0200504E020688069C0438006F1D44B
:1038800020688069C043800602D5002EC8D003E0BE
:1038900016B92168C1F81C80012645F0040521688D
:1038A0008869C20505D54FF48072CA6145F00105EB
:1038B000012641050AD5216880054FF4806245F054
:1038C0000805CA614FF0010602D40AE0800507D559
:1038D000206801264FF4007145F00205C16100E047
:1038E0008EB12046FFF77BFF20680021074F436819
:1038F0003B404360606C2843606484F8418084F8F6
:10390000421084F840103046BDE8F08700E800FE21
:103910002DE9F843174604461548DAB2DDE9089860
:103920001E4600900023204600F056F842464946C5
:10393000204600F0D3F8B8B9012EFDB208D02068B7
:10394000390A816242464946204600F0C7F858B914
:1039500020688562002240214B462046CDF8008039
:1039600000F052F8002800D00120BDE8F8830000E4
:10397000002000802DE9F8430446164817461E46ED
:10398000DAB20090C3022046DDE9089800F024F87E
:1039900042464946204600F0A1F8B8B9012EFDB2D2
:1039A00008D02068390A816242464946204600F024
:1039B00095F858B920688562002280214B46204640
:1039C000CDF8008000F020F8002800D00120BDE8EC
:1039D000F88300000020008070B50068C1F3090181
:1039E00041EA0241074D049C19434FF48066426846
:1039F000214306EA54532B439A4321F000410A43E2
:103A0000426070BDFF63FF032DE9F0411D4617467C
:103A10000E460446DDF8188028E042462946204636
:103A2000FFF7EEFE10B10120BDE8F081681C1DD04B
:103A3000FDF79CFEA0EB0800A84200D8B5B92068AD
:103A4000806936EA00000FD00020B8420ED1626CC7
:103A5000002084F84000202142F02002626484F8B3
:103A6000411084F84200DEE70120EEE7206880691B
:103A700036EA000004D00020B842CED00020D3E7C0
:103A80000120F9E770B516460D4604461FE03246A0
:103A900029462046FFF7B4FE08B1012070BDFDF7AE
:103AA00065FE801BA84200D88DB920688069C0439C
:103AB00080060CD5626C002084F84000202142F082
:103AC0002002626484F8411084F84200E5E720682F
:103AD0008069C0438006DAD4002070BD70B51646F8
:103AE0000D46044621E0324629462046FFF788FE6F
:103AF00008B1012070BD681C17D0FDF737FE801B90
:103B0000A84200D88DB920688069C04380070CD5D1
:103B1000626C002084F84000202142F020026264A0
:103B200084F8411084F84200E3E720688069C043CC
:103B30008007D8D4002070BD70B504460E489FEDB4
:103B40000D0A0D46216051002271022380ED010A09
:103B500080ED020A03222846FDF7C4FE08B10020CA
:103B600070BD204600F05DF8204600F069F80120A5
:103B700070BD00000000000008000024022110B504
:103B800000F01AF8C008800010BD042100F014B83D
:103B900010B5FFF7FAFF00EE100A0648B8EE400A2B
:103BA000D0ED010A80EE201ABCEEC10A10EE100A18
:103BB00080B210BD080000241FB502234FF47A74B0
:103BC00003AA8DE81C00006801230A468021FDF746
:103BD00009FFBDF80C0004B040BA10BD032110B5B8
:103BE000FFF7EAFF00EE100A0648B8EE400AD0EDF3
:103BF000020A20EE200ABCEEC00A10EE100A80B2C3
:103C000010BD000008000024012110B5FFF7D4FF0B
:103C1000B0F57A6F01D94FF260006421B0FBF1F08A
:103C200010BD00214FF4004210B500F02BF8BDE8A4
:103C300010400120FDF76CBC0A46052100F022B8B7
:103C40000B4A4FF4A04170B59FED0A0ADFED0A0A56
:103C50001180054682ED010AC2ED020A40F6FF74AA
:103C6000FFF7EAFF21462846BDE8704000F006B89D
:103C70000800002400004842CDCCCC3E0A4600217A
:103C8000AFF300807FB5130A02258DF80C304FF496
:103C90007A768DF80D2003AC8DE870000068012362
:103CA0000A468021FDF750FF7FBD0000114808B58E
:103CB000016841F004010160016801F00401009114
:103CC000016841F080010160016801F0800100910C
:103CD000016841F001010160016801F001010091FA
:103CE000016841F002010160006800F002000090EC
:103CF00008BD0000E04402581348002110B5114CE3
:103D00000123124A0460C0E90121C0E90331416185
:103D10008161C1610162FDF785FD08B1FDF7F5FB29
:103D200009480021FDF728FD08B1FDF7EEFB064824
:103D30000021FDF74DFD002803D0BDE81040FDF740
:103D4000E4BB10BD00540040F0000024926160000C
:103D50001848002110B5164C0C224FF4E1330460D2
:103D6000C0E90131C160C0E904128161C161016231
:103D700041628162FFF760FC08B1FDF7C6FB0D48A8
:103D80000021FFF733FC08B1FDF7BFFB0948002114
:103D9000FFF706FC08B1FDF7B8FB0648FFF7E0FBAC
:103DA000002803D0BDE81040FDF7AFBB10BD0000F8
:103DB0000010014044010024FEE7FEE770470000C8
:103DC0002DE9F047454D044689464FF0000A286822
:103DD000C04380070AD0414E283E306820F0806002
:103DE0003060FDF7C3FC0746B04608E00120BDE89F
:103DF000F08700BFFDF7BAFCC01B022867D8D8F8CF
:103E000000000001F6D4206829684FF4FE0721F471
:103E10007C313E0241EA00302860207AA389B4F860
:103E200004C040022D4D2D495B1E227CACF1010CDB
:103E30001035091DA0F5007080B2521ECCF3080C9D
:103E400007EA034340EA0C00184306EA0262104303
:103E500028600868626920F0C000104308600A68A2
:103E6000A06922F0200202430A60281D0A6822F09D
:103E700010020A6002684FF6F873E4699A4342EA56
:103E8000C40202600868B9F1000F40F010020A6035
:103E900011D00868B9F1010F11D040F4001008608A
:103EA000D8F80000444640F08060C8F80000FDF7F4
:103EB0005DFC05460DE0086840F40020EFE740F4A3
:103EC0008010ECE7FDF752FC401B022801D90320CB
:103ED0008DE720680001F5D5504688E72844025850
:103EE0002DE9F047454D044689464FF0000A286801
:103EF000C04380070AD0414E283E306820F08050F1
:103F00003060FDF733FC0746B04608E00120BDE80D
:103F1000F08700BFFDF72AFCC01B022867D8D8F83D
:103F200000008000F6D4208829684FF4FE0721F0B5
:103F30007C713E0241EA00502860207AA389B4F8DF
:103F400004C040022D4D2D495B1E227CACF1010CBA
:103F50001835091DA0F5007080B2521ECCF3080C74
:103F600007EA034340EA0C00184306EA02621043E2
:103F700028600868626920F44060104308600A689D
:103F8000A06922F4007202430A60281D0A6822F424
:103F900080720A6002684FF6F873E4699A4342EA55
:103FA000C40202600868B9F1000F40F480720A6030
:103FB00011D00868B9F1010F11D040F0807008608D
:103FC000D8F80000444640F08050C8F80000FDF7E3
:103FD000CDFB05460DE0086840F48000EFE740F4B3
:103FE0000000ECE7FDF7C2FB401B022801D90320CB
:103FF0008DE720688000F5D5504688E728440258B0
:104000007047FDF78FBE000070B59CB04C2168462C
:10401000FCF7F0FA202113A8FCF7ECFA0220FDF7D8
:1040200065FF2D4900242D480A6822F001020A602C
:104030000A68026842F440420260026802F44042A8
:104040001B9202689204FCD5254A136843F00203D0
:104050001360126802F002021B92026842F44042AE
:10406000026002680A6842F001020A60096801F011
:1040700001011B9101688904FCD50DF1280C022077
:1040800009900521C0228CE80700C3030F90082582
:104090000D9001260E90CDE91054CDE900636846DD
:1040A0001294FEF789FF08B172B6FEE740201A901D
:1040B0003F210301CDE916500322CDE9180313ABCC
:1040C00013A883E816000421FEF766FD002801D03E
:1040D00072B6FEE71CB070BD2C0400581848025898
:1040E000F44402582C48F0B52C4A016841F47001A0
:1040F0000160106800F00F00072804D2106820F05B
:104100000F00C01D106026490020254C10340B689C
:10411000244D43F001030B6020600B682B400B60C3
:10412000136803F00F03072B04D9136823F00F0360
:10413000DB1D13601A4C1C4A18341C4B261D371DFE
:104140002060174C1A4D28343060261D3860371D0A
:1041500023603B1D35601C1D3A60251D2E1D186017
:10416000331D22602860326018600A680C4B114CC5
:1041700022F4802260330A60186020686FF30F0019
:10418000B0F1005F03D20C490120C1F8080143F2ED
:10419000D2000A490860F0BD88ED00E0002000521E
:1041A000004402587FEDF6EA80020101000202029B
:1041B0000000FF010010005C008000510040005230
:1041C00030B5416EB9B101680D4B03F108048A683E
:1041D0008968C2F34262490F5D5C615C2D01B5FBE9
:1041E000F1F1A0F86A10995CA25C0901B1FBF2F14F
:1041F000A0F8681030BD0121A0F86A10F8E70000AF
:10420000DE49000890F82810090706D50168836B7D
:104210004A6822F400421A434A6090F82810C907FD
:1042200006D00168C36A4A6822F400321A434A6021
:1042300090F82810890706D50168036B4A6822F4B4
:1042400080321A434A6090F82810490706D5016861
:10425000436B4A6822F480221A434A6090F828107F
:10426000C90606D50168C36B8A6822F480521A43D6
:104270008A6090F82810890606D50168036C8A6860
:1042800022F400521A438A6090F82810490611D58A
:104290000168436C4A6822F480121A434A60416CF8
:1042A000B1F5801F06D10168836C4A6822F4C00210
:1042B0001A434A6090F82810090606D50168C26CB6
:1042C000486820F400201043486070472DE9F84307
:1042D00000250446C0F89050FDF748FA8046206853
:1042E00020266FF07E470068000713D50022434662
:1042F00031042046009700F03FFA58B1216851E898
:10430000000F20F0800041E80002002AF6D1C4F836
:10431000886021E020680068400722D500224346DB
:104320004FF480012046009700F026FAC8B12068BB
:1043300050E8001F21F4907140E80012002AF6D1E5
:104340002068083050E8001F21F0010140E8001209
:10435000002AF5D1C4F88C60032084F88450BDE8AD
:10436000F883C4F88860C4F88C60E566256700208F
:1043700084F88450F3E7000010B5026852E8001F8B
:1043800021F4907142E80013002BF6D10E4B026825
:10439000083252E8001F194042E80014002CF6D100
:1043A000C16E012908D1026852E8001F21F01001F6
:1043B00042E80013002BF6D100212022C0F88C2007
:1043C000C166416710BD0000FEFFFFEF2DE9F0431D
:1043D00004468068D84E87B0D84B2168D4E90427BA
:1043E000D4F81CC010430A68002547EA0C0738437C
:1043F000324002430A602068E268416821F440517B
:10440000114341602268A1699A4201D0206A0143A8
:104410009768DFF82CC3CB4ECB4807EA0C070F4355
:1044200097602168676ACA6A22F00F023A43CA623B
:104430002268B2420ED1006800F03800182873D00C
:1044400047DCB8B3082879D010286FD178E0282845
:104450007ED17BE0BD498A4209D1006800F00700A7
:10446000062875D2DFE800F0546A6C6E7072B849A5
:104470008A4209D1006800F00700062868D2DFE808
:1044800000F0475D5F616365B2498A4209D1006807
:1044900000F0070006285BD2DFE800F03A505254E3
:1044A0005658AD498A420BD1006800F00700062833
:1044B0004ED200E010E0DFE800F02B4143454749D1
:1044C000A6498A420AD1006800F03800182839D07D
:1044D000B7DD2028BBD13CE001203AE0A0498A4268
:1044E00009D1006800F00700062831D2DFE800F0AB
:1044F0001026282A2C2E9B498A420BD1006800F0F6
:104500000700062824D2DFE800F003191B1D1F2135
:1045100000201EE09A421BD18B48001D006800F06D
:104520000700062814D202E00CE007E010E0DFE804
:1045300000F0030507090B0D02200AE0042008E043
:10454000082006E0102004E0202002E0402000E0E7
:1045500080208549DFF814829A42854A4FF400434F
:104560004FEA21174FF000064ED110281AD006DC72
:10457000022809D004280BD008287CD10DE020287F
:104580003ED0402877D13DE0FDF7DAFC014610E04F
:104590006846FDF7E7FC01990BE003A8FDF784FDF1
:1045A000049906E01068800605D51068C0F3C100C4
:1045B000C140002970D0606A676838F8102007EBA6
:1045C0004703B1FBF2F0834255D8B0EB073F52D816
:1045D000002308461946FBF7DBFE02467808130E57
:1045E000120243EA012110183A4671410023FBF7F9
:1045F000CFFE604AA0F5407191423CD821688FE01F
:104600003946D8E71946D6E7D4F81CC04FF6EF79FB
:104610009C4546D1082819D005DC58B101280CD09A
:10462000042875D10DE0102815D0202835D0402859
:104630006ED134E0FEF700FC01E0FEF70FFC01460E
:1046400010E06846FDF78EFC01990BE003A8FDF72A
:104650002BFD049906E01068800604D51068C0F3AD
:10466000C100C140C1B1636A606838F81330B1FB62
:10467000F3F1490000E04BE001EB5001B1FBF0F039
:10468000A0F11001494543D84FF6F0732168C0F3FB
:1046900042021840104343E043E03946E3E719463D
:1046A000E1E7082819D005DC58B101280CD004280E
:1046B0002ED10DE0102815D020282BD0402827D14E
:1046C0002AE0FEF7B9FB01E0FEF7C8FB014610E067
:1046D0006846FDF747FC01990BE003A8FDF7E4FCF1
:1046E000049906E01068800604D51068C0F3C10084
:1046F000C140B1B1636A606838F81330B1FBF3F1BF
:1047000001EB5001B1FBF0F0A0F11001494505D9D2
:10471000012506E03946EDE71946EBE7216880B24E
:10472000C8600120A4F86A00A4F8680028466667FB
:10473000A66707B0BDE8F083F369FFCF000C00580F
:10474000FFF4FF110010014054440258004400409F
:1047500000480040004C0040005000400014014060
:1047600000780040007C00400090D003C64900085B
:1047700000440258FFFC0F002DE9F0479946174608
:104780000D460446089E4FF0000833E0701C31D0FF
:10479000FCF7ECFFA0EB0900B04218D8BEB12068CE
:1047A0000168490726D5802D24D0402D22D0C1692B
:1047B000C94309070DD4082505622046FFF7DCFD33
:1047C000C4F89050012084F88480BDE8F08703206D
:1047D000FBE7C069C04300050CD421684FF40060BA
:1047E00008622046FFF7C8FD2021C4F8901084F825
:1047F0008480ECE72068C06935EA000004D000201E
:10480000B842C3D00020E0E70120F9E7FEE703B497
:1048100001984100009850EAC12018BF04204A0DB9
:1048200018BF40F0010040F2FF72B2EB515F08BFC9
:1048300040F00200012808BF052002B070470907B8
:1048400000284FEA116104DB00F1E02080F8001439
:10485000704700F00F0000F1E02080F8141D704751
:1048600030380A2801D2012070470020704700002C
:104870002DED048B86B000240094019402940394DF
:10488000FDF7D4FA01208DF80C001F218DF80810D7
:1048900087228DF809208DF80D008DF800006846FC
:1048A0008DF80A408DF80E408DF8014001948DF886
:1048B0000B408DF80F40FDF78BFA0420FDF7C4FA8A
:1048C000FDF738FAFFF7A0FBFFF7F0F9FFF714FA4E
:1048D000FFF73EFA274940222748FFF72DF9002825
:1048E000F8D04FF4FA749FED258A2348FFF746F974
:1048F00000EE100A2048B8EE400AC0EE089AFFF712
:1049000083F900EE100A1C48B8EE400A80EE089ABF
:10491000FFF73EF900EE100A1748B8EE400AC0EE65
:10492000088AFFF75BF900EE100AB7EEE81AF8EE16
:10493000400A1349134880EE880AB7EEC00A8DED8D
:10494000040B8DED021BB7EEC91AB7EEE90A8DED27
:10495000001B53EC102BFBF793FD0A48FBF72BFED3
:1049600082B208490848FF23FEF7E0FE2046FCF724
:10497000CFFDBAE7F00000240000002400007A44D4
:10498000944A0008280000244401002410B500299E
:104990000AD00878002807D005487844FCF7B0F919
:1049A000002801D0002010BD0248784410BD00004E
:1049B0005E010000560100004FF04070E1EE100A69
:1049C0007047FBF71ABF0100020004000600080050
:1049D0000A000C00100020004000800000010101CE
:1049E000010307010000080402040801010100009E
:1049F0000000010203040102030406070809000085
:104A000002400000000000A000000000054000007F
:104A1000000000C8000000000C4000000000409CA6
:104A200000000000194000000020BCBE0000000093
:104A300034400000BFC91B8E00000004B5400000D8
:104A4000504BCFD06607E2CF010000006C41000060
:104A50003E8251AADFEEA73401000000D9420000D7
:104A6000DCB5A0E23A301F97FFFFFFFFB44500001E
:104A7000FD25A0C8E9A3C14FFFFFFFFFFF3F0000D6
:104A80000000008000000000FF3F000000000080E8
:104A900000000000494E4132313920564255533A08
:104AA000252E346620563B20565F5348554E543AC7
:104AB000252E346620563B2043555252454E543ADB
:104AC000252E346620413B20504F5745523A252E23
:104AD000346620570D0A0000144B00080000002423
:104AE00028000000D40200083C4B000828000024E5
:104AF00010080000F00200081C0000004300000045
:104B0000F8FFFFFF0C0000000E0000000F00000087
:104B10002E00000000000000000000000000000067
:104B20000000000000000000010000001000000074
:0C4B3000000000000090D0030090D003B3
:040000050800029954
:00000001FF
